{
  "_format": "hh-sol-artifact-1",
  "contractName": "NodeList",
  "sourceName": "contracts/NodeList.sol",
  "abi": [
    {
      "anonymous": false,
      "inputs": [
        {
          "indexed": false,
          "internalType": "uint256",
          "name": "oldEpoch",
          "type": "uint256"
        },
        {
          "indexed": false,
          "internalType": "uint256",
          "name": "newEpoch",
          "type": "uint256"
        }
      ],
      "name": "EpochChanged",
      "type": "event"
    },
    {
      "anonymous": false,
      "inputs": [
        {
          "indexed": false,
          "internalType": "address",
          "name": "publicKey",
          "type": "address"
        },
        {
          "indexed": false,
          "internalType": "uint256",
          "name": "epoch",
          "type": "uint256"
        },
        {
          "indexed": false,
          "internalType": "uint256",
          "name": "position",
          "type": "uint256"
        }
      ],
      "name": "NodeListed",
      "type": "event"
    },
    {
      "anonymous": false,
      "inputs": [
        {
          "indexed": true,
          "internalType": "address",
          "name": "previousOwner",
          "type": "address"
        },
        {
          "indexed": true,
          "internalType": "address",
          "name": "newOwner",
          "type": "address"
        }
      ],
      "name": "OwnershipTransferred",
      "type": "event"
    },
    {
      "inputs": [],
      "name": "clearAllEpoch",
      "outputs": [],
      "stateMutability": "nonpayable",
      "type": "function"
    },
    {
      "inputs": [],
      "name": "currentEpoch",
      "outputs": [
        {
          "internalType": "uint256",
          "name": "",
          "type": "uint256"
        }
      ],
      "stateMutability": "view",
      "type": "function"
    },
    {
      "inputs": [
        {
          "internalType": "uint256",
          "name": "",
          "type": "uint256"
        }
      ],
      "name": "epochInfo",
      "outputs": [
        {
          "internalType": "uint256",
          "name": "id",
          "type": "uint256"
        },
        {
          "internalType": "uint256",
          "name": "n",
          "type": "uint256"
        },
        {
          "internalType": "uint256",
          "name": "k",
          "type": "uint256"
        },
        {
          "internalType": "uint256",
          "name": "t",
          "type": "uint256"
        },
        {
          "internalType": "uint256",
          "name": "prevEpoch",
          "type": "uint256"
        },
        {
          "internalType": "uint256",
          "name": "nextEpoch",
          "type": "uint256"
        }
      ],
      "stateMutability": "view",
      "type": "function"
    },
    {
      "inputs": [
        {
          "internalType": "uint256",
          "name": "epoch",
          "type": "uint256"
        }
      ],
      "name": "getEpochInfo",
      "outputs": [
        {
          "internalType": "uint256",
          "name": "id",
          "type": "uint256"
        },
        {
          "internalType": "uint256",
          "name": "n",
          "type": "uint256"
        },
        {
          "internalType": "uint256",
          "name": "k",
          "type": "uint256"
        },
        {
          "internalType": "uint256",
          "name": "t",
          "type": "uint256"
        },
        {
          "internalType": "address[]",
          "name": "nodeList",
          "type": "address[]"
        },
        {
          "internalType": "uint256",
          "name": "prevEpoch",
          "type": "uint256"
        },
        {
          "internalType": "uint256",
          "name": "nextEpoch",
          "type": "uint256"
        }
      ],
      "stateMutability": "view",
      "type": "function"
    },
    {
      "inputs": [
        {
          "internalType": "address",
          "name": "nodeAddress",
          "type": "address"
        }
      ],
      "name": "getNodeDetails",
      "outputs": [
        {
          "internalType": "string",
          "name": "declaredIp",
          "type": "string"
        },
        {
          "internalType": "uint256",
          "name": "position",
          "type": "uint256"
        },
        {
          "internalType": "string",
          "name": "tmP2PListenAddress",
          "type": "string"
        },
        {
          "internalType": "string",
          "name": "p2pListenAddress",
          "type": "string"
        }
      ],
      "stateMutability": "view",
      "type": "function"
    },
    {
      "inputs": [
        {
          "internalType": "uint256",
          "name": "epoch",
          "type": "uint256"
        }
      ],
      "name": "getNodes",
      "outputs": [
        {
          "internalType": "address[]",
          "name": "",
          "type": "address[]"
        }
      ],
      "stateMutability": "view",
      "type": "function"
    },
    {
      "inputs": [
        {
          "internalType": "uint256",
          "name": "oldEpoch",
          "type": "uint256"
        },
        {
          "internalType": "uint256",
          "name": "newEpoch",
          "type": "uint256"
        }
      ],
      "name": "getPssStatus",
      "outputs": [
        {
          "internalType": "uint256",
          "name": "",
          "type": "uint256"
        }
      ],
      "stateMutability": "view",
      "type": "function"
    },
    {
      "inputs": [
        {
          "internalType": "uint256",
          "name": "_epoch",
          "type": "uint256"
        }
      ],
      "name": "initialize",
      "outputs": [],
      "stateMutability": "nonpayable",
      "type": "function"
    },
    {
      "inputs": [
        {
          "internalType": "uint256",
          "name": "epoch",
          "type": "uint256"
        },
        {
          "internalType": "address",
          "name": "nodeAddress",
          "type": "address"
        }
      ],
      "name": "isWhitelisted",
      "outputs": [
        {
          "internalType": "bool",
          "name": "",
          "type": "bool"
        }
      ],
      "stateMutability": "view",
      "type": "function"
    },
    {
      "inputs": [
        {
          "internalType": "uint256",
          "name": "epoch",
          "type": "uint256"
        },
        {
          "internalType": "string",
          "name": "declaredIp",
          "type": "string"
        },
        {
          "internalType": "uint256",
          "name": "pubKx",
          "type": "uint256"
        },
        {
          "internalType": "uint256",
          "name": "pubKy",
          "type": "uint256"
        },
        {
          "internalType": "string",
          "name": "tmP2PListenAddress",
          "type": "string"
        },
        {
          "internalType": "string",
          "name": "p2pListenAddress",
          "type": "string"
        }
      ],
      "name": "listNode",
      "outputs": [],
      "stateMutability": "nonpayable",
      "type": "function"
    },
    {
      "inputs": [
        {
          "internalType": "address",
          "name": "",
          "type": "address"
        }
      ],
      "name": "nodeDetails",
      "outputs": [
        {
          "internalType": "string",
          "name": "declaredIp",
          "type": "string"
        },
        {
          "internalType": "uint256",
          "name": "position",
          "type": "uint256"
        },
        {
          "internalType": "uint256",
          "name": "pubKx",
          "type": "uint256"
        },
        {
          "internalType": "uint256",
          "name": "pubKy",
          "type": "uint256"
        },
        {
          "internalType": "string",
          "name": "tmP2PListenAddress",
          "type": "string"
        },
        {
          "internalType": "string",
          "name": "p2pListenAddress",
          "type": "string"
        }
      ],
      "stateMutability": "view",
      "type": "function"
    },
    {
      "inputs": [
        {
          "internalType": "uint256",
          "name": "epoch",
          "type": "uint256"
        },
        {
          "internalType": "address",
          "name": "nodeAddress",
          "type": "address"
        }
      ],
      "name": "nodeRegistered",
      "outputs": [
        {
          "internalType": "bool",
          "name": "",
          "type": "bool"
        }
      ],
      "stateMutability": "view",
      "type": "function"
    },
    {
      "inputs": [],
      "name": "owner",
      "outputs": [
        {
          "internalType": "address",
          "name": "",
          "type": "address"
        }
      ],
      "stateMutability": "view",
      "type": "function"
    },
    {
      "inputs": [
        {
          "internalType": "uint256",
          "name": "",
          "type": "uint256"
        },
        {
          "internalType": "uint256",
          "name": "",
          "type": "uint256"
        }
      ],
      "name": "pssStatus",
      "outputs": [
        {
          "internalType": "uint256",
          "name": "",
          "type": "uint256"
        }
      ],
      "stateMutability": "view",
      "type": "function"
    },
    {
      "inputs": [],
      "name": "renounceOwnership",
      "outputs": [],
      "stateMutability": "nonpayable",
      "type": "function"
    },
    {
      "inputs": [
        {
          "internalType": "uint256",
          "name": "_newEpoch",
          "type": "uint256"
        }
      ],
      "name": "setCurrentEpoch",
      "outputs": [],
      "stateMutability": "nonpayable",
      "type": "function"
    },
    {
      "inputs": [
        {
          "internalType": "address",
          "name": "newOwner",
          "type": "address"
        }
      ],
      "name": "transferOwnership",
      "outputs": [],
      "stateMutability": "nonpayable",
      "type": "function"
    },
    {
      "inputs": [
        {
          "internalType": "uint256",
          "name": "epoch",
          "type": "uint256"
        },
        {
          "internalType": "uint256",
          "name": "n",
          "type": "uint256"
        },
        {
          "internalType": "uint256",
          "name": "k",
          "type": "uint256"
        },
        {
          "internalType": "uint256",
          "name": "t",
          "type": "uint256"
        },
        {
          "internalType": "address[]",
          "name": "nodeList",
          "type": "address[]"
        },
        {
          "internalType": "uint256",
          "name": "prevEpoch",
          "type": "uint256"
        },
        {
          "internalType": "uint256",
          "name": "nextEpoch",
          "type": "uint256"
        }
      ],
      "name": "updateEpoch",
      "outputs": [],
      "stateMutability": "nonpayable",
      "type": "function"
    },
    {
      "inputs": [
        {
          "internalType": "uint256",
          "name": "oldEpoch",
          "type": "uint256"
        },
        {
          "internalType": "uint256",
          "name": "newEpoch",
          "type": "uint256"
        },
        {
          "internalType": "uint256",
          "name": "status",
          "type": "uint256"
        }
      ],
      "name": "updatePssStatus",
      "outputs": [],
      "stateMutability": "nonpayable",
      "type": "function"
    },
    {
      "inputs": [
        {
          "internalType": "uint256",
          "name": "epoch",
          "type": "uint256"
        },
        {
          "internalType": "address",
          "name": "nodeAddress",
          "type": "address"
        },
        {
          "internalType": "bool",
          "name": "allowed",
          "type": "bool"
        }
      ],
      "name": "updateWhitelist",
      "outputs": [],
      "stateMutability": "nonpayable",
      "type": "function"
    },
    {
      "inputs": [
        {
          "internalType": "uint256",
          "name": "",
          "type": "uint256"
        },
        {
          "internalType": "address",
          "name": "",
          "type": "address"
        }
      ],
      "name": "whitelist",
      "outputs": [
        {
          "internalType": "bool",
          "name": "",
          "type": "bool"
        }
      ],
      "stateMutability": "view",
      "type": "function"
    }
  ],
  "bytecode": "0x608060405234801561001057600080fd5b50611d4e806100206000396000f3fe608060405234801561001057600080fd5b50600436106101775760003560e01c80637d22c35c116100d8578063bafb35811161008c578063f2fde38b11610066578063f2fde38b146103d8578063fad15163146103eb578063fe4b84df146103f357610177565b8063bafb358114610377578063bf2d6f811461039a578063c7aa8ff7146103ad57610177565b806386470e9e116100bd57806386470e9e146103365780638da5cb5b14610349578063ae4df20c1461036457610177565b80637d22c35c146102fe578063859da85f1461031157610177565b80634b25bfce1161012f5780636967ac51116101145780636967ac51146102da578063715018a6146102ed57806376671808146102f557610177565b80634b25bfce1461026357806352fc47b4146102a157610177565b80633894228e116101605780633894228e146101c05780633d4602a91461023057806347de074f1461024357610177565b8063135022c21461017c5780631dd6b9b1146101ab575b600080fd5b61018f61018a3660046118be565b610406565b6040516101a29796959493929190611c8e565b60405180910390f35b6101be6101b93660046118be565b610545565b005b6102036101ce3660046118be565b606760205260009081526040902080546001820154600283015460038401546005850154600690950154939492939192909186565b604080519687526020870195909552938501929092526060840152608083015260a082015260c0016101a2565b6101be61023e366004611901565b6105e4565b6102566102513660046118be565b6106b5565b6040516101a29190611bd9565b6102916102713660046118d6565b606660209081526000928352604080842090915290825290205460ff1681565b60405190151581526020016101a2565b6102cc6102af3660046119f9565b606960209081526000928352604080842090915290825290205481565b6040519081526020016101a2565b6101be6102e8366004611a1a565b610767565b6101be610861565b6102cc60655481565b61029161030c3660046118d6565b610905565b61032461031f36600461189d565b610932565b6040516101a296959493929190611c36565b6102916103443660046118d6565b610afe565b6033546040516001600160a01b0390911681526020016101a2565b6101be610372366004611a45565b610b8a565b61038a61038536600461189d565b610cb9565b6040516101a29493929190611bec565b6101be6103a8366004611944565b610f13565b6102cc6103bb3660046119f9565b600091825260696020908152604080842092845291905290205490565b6101be6103e636600461189d565b61124e565b6101be611380565b6101be6104013660046118be565b6113e5565b60008080806060818087806104555760405162461bcd60e51b815260206004820152601060248201526f045706f63682063616e277420626520360841b60448201526064015b60405180910390fd5b6000898152606760209081526040808320815160e08101835281548152600182015481850152600282015481840152600382015460608201526004820180548451818702810187019095528085529194929360808601939092908301828280156104e857602002820191906000526020600020905b81546001600160a01b031681526001909101906020018083116104ca575b50505050508152602001600582015481526020016006820154815250509050806000015181602001518260400151836060015184608001518560a001518660c0015198509850985098509850985098505050919395979092949650565b6033546001600160a01b0316331461059f5760405162461bcd60e51b815260206004820181905260248201527f4f776e61626c653a2063616c6c6572206973206e6f7420746865206f776e6572604482015260640161044c565b606580549082905560408051828152602081018490527f528990bbb5369a7f6d5acab41233e32bddb4882673d0208805b59cbad0dc1ec8910160405180910390a15050565b6033546001600160a01b0316331461063e5760405162461bcd60e51b815260206004820181905260248201527f4f776e61626c653a2063616c6c6572206973206e6f7420746865206f776e6572604482015260640161044c565b828061067f5760405162461bcd60e51b815260206004820152601060248201526f045706f63682063616e277420626520360841b604482015260640161044c565b5060009283526066602090815260408085206001600160a01b039490941685529290529120805460ff1916911515919091179055565b606081806106f85760405162461bcd60e51b815260206004820152601060248201526f045706f63682063616e277420626520360841b604482015260640161044c565b6000838152606760209081526040918290206004018054835181840281018401909452808452909183018282801561075957602002820191906000526020600020905b81546001600160a01b0316815260019091019060200180831161073b575b505050505091505b50919050565b6033546001600160a01b031633146107c15760405162461bcd60e51b815260206004820181905260248201527f4f776e61626c653a2063616c6c6572206973206e6f7420746865206f776e6572604482015260640161044c565b82806108025760405162461bcd60e51b815260206004820152601060248201526f045706f63682063616e277420626520360841b604482015260640161044c565b82806108435760405162461bcd60e51b815260206004820152601060248201526f045706f63682063616e277420626520360841b604482015260640161044c565b50506000928352606960209081526040808520938552929052912055565b6033546001600160a01b031633146108bb5760405162461bcd60e51b815260206004820181905260248201527f4f776e61626c653a2063616c6c6572206973206e6f7420746865206f776e6572604482015260640161044c565b6033546040516000916001600160a01b0316907f8be0079c531659141344cd1fd0a4f28419497f9722a3daafe3b4186f6b6457e0908390a3603380546001600160a01b0319169055565b60008281526066602090815260408083206001600160a01b038516845290915290205460ff165b92915050565b60686020526000908152604090208054819061094d90611ccf565b80601f016020809104026020016040519081016040528092919081815260200182805461097990611ccf565b80156109c65780601f1061099b576101008083540402835291602001916109c6565b820191906000526020600020905b8154815290600101906020018083116109a957829003601f168201915b5050505050908060010154908060020154908060030154908060040180546109ed90611ccf565b80601f0160208091040260200160405190810160405280929190818152602001828054610a1990611ccf565b8015610a665780601f10610a3b57610100808354040283529160200191610a66565b820191906000526020600020905b815481529060010190602001808311610a4957829003601f168201915b505050505090806005018054610a7b90611ccf565b80601f0160208091040260200160405190810160405280929190818152602001828054610aa790611ccf565b8015610af45780601f10610ac957610100808354040283529160200191610af4565b820191906000526020600020905b815481529060010190602001808311610ad757829003601f168201915b5050505050905086565b6000828152606760205260408120815b6004820154811015610b7f57836001600160a01b0316826004018281548110610b4757634e487b7160e01b600052603260045260246000fd5b6000918252602090912001546001600160a01b03161415610b6d5760019250505061092c565b80610b7781611d04565b915050610b0e565b506000949350505050565b6033546001600160a01b03163314610be45760405162461bcd60e51b815260206004820181905260248201527f4f776e61626c653a2063616c6c6572206973206e6f7420746865206f776e6572604482015260640161044c565b8680610c255760405162461bcd60e51b815260206004820152601060248201526f045706f63682063616e277420626520360841b604482015260640161044c565b6040805160e08101825289815260208082018a81528284018a8152606084018a8152608085018a815260a086018a905260c0860189905260008f8152606786529690962085518155925160018401559051600283015551600382015592518051929392610c989260048501920190611732565b5060a0820151600582015560c0909101516006909101555050505050505050565b60606000606080610cf96040518060c001604052806060815260200160008152602001600081526020016000815260200160608152602001606081525090565b6001600160a01b03861660009081526068602052604090819020815160c08101909252805482908290610d2b90611ccf565b80601f0160208091040260200160405190810160405280929190818152602001828054610d5790611ccf565b8015610da45780601f10610d7957610100808354040283529160200191610da4565b820191906000526020600020905b815481529060010190602001808311610d8757829003601f168201915b50505050508152602001600182015481526020016002820154815260200160038201548152602001600482018054610ddb90611ccf565b80601f0160208091040260200160405190810160405280929190818152602001828054610e0790611ccf565b8015610e545780601f10610e2957610100808354040283529160200191610e54565b820191906000526020600020905b815481529060010190602001808311610e3757829003601f168201915b50505050508152602001600582018054610e6d90611ccf565b80601f0160208091040260200160405190810160405280929190818152602001828054610e9990611ccf565b8015610ee65780601f10610ebb57610100808354040283529160200191610ee6565b820191906000526020600020905b815481529060010190602001808311610ec957829003601f168201915b50505091909252505081516020830151608084015160a090940151919a9099509297509550909350505050565b88610f1e8133610905565b610f6a5760405162461bcd60e51b815260206004820181905260248201527f4e6f64652069736e27742077686974656c697374656420666f722065706f6368604482015260640161044c565b8980610fab5760405162461bcd60e51b815260206004820152601060248201526f045706f63682063616e277420626520360841b604482015260640161044c565b60008b8152606760205260409020548b90811461100a5760405162461bcd60e51b815260206004820152601560248201527f45706f636820616c726561647920637265617465640000000000000000000000604482015260640161044c565b6110148c33610afe565b156110615760405162461bcd60e51b815260206004820152601a60248201527f4e6f646520697320616c72656164792072656769737465726564000000000000604482015260640161044c565b60008c81526067602090815260408083206004810180546001810182559085529383902090930180546001600160a01b03191633179055805160e0601f8f018490049093028101830190915260c081018d815290918291908f908f9081908501838280828437600092019190915250505090825250600483015460208083019190915260408083018e9052606083018d90528051601f8c018390048302810183019091528a8152608090920191908b908b9081908401838280828437600092019190915250505090825250604080516020601f8a018190048102820181019092528881529181019190899089908190840183828082843760009201829052509390945250503381526068602090815260409091208351805191935061118a928492910190611797565b5060208281015160018301556040830151600283015560608301516003830155608083015180516111c19260048501920190611797565b5060a082015180516111dd916005840191602090910190611797565b509050507fe2f8adb0f494dc82ccf446c031763ef3762d6396d51664611ed89aac0117339e338e8360040180549050604051611237939291906001600160a01b039390931683526020830191909152604082015260600190565b60405180910390a150505050505050505050505050565b6033546001600160a01b031633146112a85760405162461bcd60e51b815260206004820181905260248201527f4f776e61626c653a2063616c6c6572206973206e6f7420746865206f776e6572604482015260640161044c565b6001600160a01b0381166113245760405162461bcd60e51b815260206004820152602660248201527f4f776e61626c653a206e6577206f776e657220697320746865207a65726f206160448201527f6464726573730000000000000000000000000000000000000000000000000000606482015260840161044c565b6033546040516001600160a01b038084169216907f8be0079c531659141344cd1fd0a4f28419497f9722a3daafe3b4186f6b6457e090600090a3603380546001600160a01b0319166001600160a01b0392909216919091179055565b60005b60655481116113e2576000818152606760205260408120818155600181018290556002810182905560038101829055906113c0600483018261180b565b50600060058201819055600690910155806113da81611d04565b915050611383565b50565b600054610100900460ff16806113fe575060005460ff16155b6114615760405162461bcd60e51b815260206004820152602e60248201527f496e697469616c697a61626c653a20636f6e747261637420697320616c72656160448201526d191e481a5b9a5d1a585b1a5e995960921b606482015260840161044c565b600054610100900460ff1615801561148c576000805460ff1961ff0019909116610100171660011790555b6114946114af565b606582905580156114ab576000805461ff00191690555b5050565b600054610100900460ff16806114c8575060005460ff16155b61152b5760405162461bcd60e51b815260206004820152602e60248201527f496e697469616c697a61626c653a20636f6e747261637420697320616c72656160448201526d191e481a5b9a5d1a585b1a5e995960921b606482015260840161044c565b600054610100900460ff16158015611556576000805460ff1961ff0019909116610100171660011790555b61155e61157a565b611566611634565b80156113e2576000805461ff001916905550565b600054610100900460ff1680611593575060005460ff16155b6115f65760405162461bcd60e51b815260206004820152602e60248201527f496e697469616c697a61626c653a20636f6e747261637420697320616c72656160448201526d191e481a5b9a5d1a585b1a5e995960921b606482015260840161044c565b600054610100900460ff16158015611566576000805460ff1961ff00199091166101001716600117905580156113e2576000805461ff001916905550565b600054610100900460ff168061164d575060005460ff16155b6116b05760405162461bcd60e51b815260206004820152602e60248201527f496e697469616c697a61626c653a20636f6e747261637420697320616c72656160448201526d191e481a5b9a5d1a585b1a5e995960921b606482015260840161044c565b600054610100900460ff161580156116db576000805460ff1961ff0019909116610100171660011790555b603380546001600160a01b0319163390811790915560405181906000907f8be0079c531659141344cd1fd0a4f28419497f9722a3daafe3b4186f6b6457e0908290a35080156113e2576000805461ff001916905550565b828054828255906000526020600020908101928215611787579160200282015b8281111561178757825182546001600160a01b0319166001600160a01b03909116178255602090920191600190910190611752565b50611793929150611825565b5090565b8280546117a390611ccf565b90600052602060002090601f0160209004810192826117c55760008555611787565b82601f106117de57805160ff1916838001178555611787565b82800160010185558215611787579182015b828111156117875782518255916020019190600101906117f0565b50805460008255906000526020600020908101906113e291905b5b808211156117935760008155600101611826565b80356001600160a01b038116811461185157600080fd5b919050565b60008083601f840112611867578182fd5b50813567ffffffffffffffff81111561187e578182fd5b60208301915083602082850101111561189657600080fd5b9250929050565b6000602082840312156118ae578081fd5b6118b78261183a565b9392505050565b6000602082840312156118cf578081fd5b5035919050565b600080604083850312156118e8578081fd5b823591506118f86020840161183a565b90509250929050565b600080600060608486031215611915578081fd5b833592506119256020850161183a565b915060408401358015158114611939578182fd5b809150509250925092565b600080600080600080600080600060c08a8c031215611961578485fd5b8935985060208a013567ffffffffffffffff8082111561197f578687fd5b61198b8d838e01611856565b909a50985060408c0135975060608c0135965060808c01359150808211156119b1578586fd5b6119bd8d838e01611856565b909650945060a08c01359150808211156119d5578384fd5b506119e28c828d01611856565b915080935050809150509295985092959850929598565b60008060408385031215611a0b578182fd5b50508035926020909101359150565b600080600060608486031215611a2e578283fd5b505081359360208301359350604090920135919050565b600080600080600080600060e0888a031215611a5f578283fd5b8735965060208089013596506040890135955060608901359450608089013567ffffffffffffffff80821115611a93578586fd5b818b0191508b601f830112611aa6578586fd5b813581811115611ab857611ab8611d2b565b838102604051601f19603f83011681018181108582111715611adc57611adc611d2b565b806040525080935082815285810193508585018f87848801011115611aff57898afd5b8995505b83861015611b2857611b148161183a565b855260019590950194938601938601611b03565b509b9e9a9d50989b979a9960a0890135995060c090980135979650505050505050565b6000815180845260208085019450808401835b83811015611b835781516001600160a01b031687529582019590820190600101611b5e565b509495945050505050565b60008151808452815b81811015611bb357602081850181015186830182015201611b97565b81811115611bc45782602083870101525b50601f01601f19169290920160200192915050565b6000602082526118b76020830184611b4b565b600060808252611bff6080830187611b8e565b8560208401528281036040840152611c178186611b8e565b90508281036060840152611c2b8185611b8e565b979650505050505050565b600060c08252611c4960c0830189611b8e565b8760208401528660408401528560608401528281036080840152611c6d8186611b8e565b905082810360a0840152611c818185611b8e565b9998505050505050505050565b600088825287602083015286604083015285606083015260e06080830152611cb960e0830186611b4b565b60a08301949094525060c0015295945050505050565b600281046001821680611ce357607f821691505b6020821081141561076157634e487b7160e01b600052602260045260246000fd5b6000600019821415611d2457634e487b7160e01b81526011600452602481fd5b5060010190565b634e487b7160e01b600052604160045260246000fdfea164736f6c6343000802000a",
  "linkReferences": {},
  "deployedLinkReferences": {}
}